:03000000020A05EC
:0C0A0500787FE4F6D8FD758120020A4CD1
:1008B4004C4344204F6B002A2A2A2A2A2A2A2A2A0D
:1008C4002A2A2A2A2A2A2A2A2A2A2A2A2A2A2A0DA1
:1008D4000A002A2A2A2A2A2A3830353120546573F4
:1008E40074732A2A2A2A2A2A2A2A0D0A005072658F
:1008F4007373203120666F72204C434420746573F7
:10090400740D0A005072657373203220666F722072
:100914004C454420746573740D0A004C43442074A0
:1009240065737465640D0A004C45442074657374E2
:1009340065640D0A00496E636F7272656374207496
:100944006573742E205061737320636F72726563D4
:0B09540074206E756D6265720D0A0064
:040C4100C101C1002C
:100AF400E4F5A0C282C280C2817F38FE120BEB12E1
:100B04000BA97F067E00120BEB120BA97F0C7E0053
:100B1400120BEB120BA97F017E00120BEB120BA937
:070B24007F807E00020BEB55
:040BA9007F047E0047
:100BAD00E4FDFCC3ED9FEC9E5015E4FBFA0BBB007E
:0F0BBD00010ABA01F8BB7EF50DBD00010C80E402
:010BCC002206
:10095F008E088F098B0A8A0B890C7C277D10120851
:10096F005FEF2430120819AE08AF097C277D1012F3
:10097F00085F7E037FE8CFCDCFCECCCE12085FEFDE
:10098F002430AB0AAA0BA90C90000112082BAE0859
:10099F00AF097C037DE812085F7E007F64CFCDCF67
:1009AF00CECCCE12085FEF2430AB0AAA0BA90C9065
:1009BF00000212082BAE08AF097C007D6412085F9D
:1009CF007E007F0ACFCDCFCECCCE12085FEF243082
:1009DF00AB0AAA0BA90C90000312082BAE08AF09A3
:1009EF007C007D0A12085FED2430AB0AAA0BA90C1C
:0609FF0090000402082B29
:100BEB00C280C281D2828FA07F0A7E00120BADC25F
:020BFB00822254
:100BFD00D280C281D2828FA07F0A7E00120BADC23D
:020C0D00822241
:100B84008B0E8A0F8910AB0EAA0FA91012080060F1
:100B9400130510E5107002050F14F9120800FF1276
:050BA4000BFD80E222C0
:100C0F00758920758DF3759850D28ED2ACD2AF22E4
:080C39008F993001FDC2012278
:060B59007BFF7A0879BB66
:100B5F008B0E8A0F8910AB0EAA0FA9101208006016
:100B6F00130510E5107002050F14F9120800FF129B
:050B7F000C3980E222A8
:090C2F00E4FF3000FDC200AF99A2
:010C38002299
:03002300020C1FAD
:100C1F00309905C299D20132309804C298D200326D
:100BCD007F807E00120BEB7BFF7A0879B4120B84C9
:0E0BDD007FD07E07120BAD7F017E00020BEB76
:100B2B009000017590F07C017D73AF82AE8312084B
:100B3B004D120BADE4F590FC7D91AF82AE831208A4
:0D0B4B004D120BADA3E5826404458370D606
:010B5800227A
:100A9100E4F50D75900F120AF4120C0F120B597B2D
:100AA100FF7A0879D6120B5F120B597BFF7A08790E
:100AB100F1120B5F7BFF7A097908120B5F120C2F81
:100AC1008F0DE50D24CE600E047016120BCD7BFF49
:100AD1007A09791F8011120B2B7BFF7A09792C80FF
:100AE100067BFF7A097939120B5F7F647E00120B56
:030AF100AD80CA0B
:100A1100020A91E493A3F8E493A34003F68001F260
:100A210008DFF48029E493A3F85407240CC8C333E6
:100A3100C4540F4420C8834004F456800146F6DFB5
:100A4100E4800B0102040810204080900C41E47EF8
:100A5100019360BCA3FF543F30E509541FFEE493AA
:100A6100A360010ECF54C025E060A840B8E493A371
:100A7100FAE493A3F8E493A3C8C582C8CAC583CA9C
:100A8100F0A3C8C582C8CAC583CADFE9DEE780BE54
:010C450000AE
:10080000BB010689828A83E0225002E722BBFE02F6
:09081000E32289828A83E4932229
:10081900BB010689828A83F0225002F722BBFE01BE
:02082900F322B8
:10082B00F8BB010DE58229F582E5833AF583E8F003
:10083B00225006E92582C8F622BBFE05E92582C8AF
:02084B00F22297
:10084D00EF8DF0A4A8F0CF8CF0A428CE8DF0A42EBF
:02085D00FE2279
:10085F00BC000BBE0029EF8DF084FFADF022E4CC7D
:10086F00F875F008EF2FFFEE33FEEC33FCEE9DEC46
:10087F00984005FCEE9DFE0FD5F0E9E4CEFD22ED8C
:10088F00F8F5F0EE8420D21CFEADF075F008EF2FD6
:10089F00FFED33FD4007985006D5F0F222C398FDC7
:0508AF000FD5F0EA2264
:00000001FF
