:03000000020A569B
:0C0A5600787FE4F6D8FD758148020A9D07
:100C6E000A526573657474696E672E2E2E000A57CC
:100C7E00726F6E67206B6579207072657373656431
:100C8E00210A000A54656E6E69732053636F726594
:100C9E00626F6172642053696D756C61746F720A54
:100CAE0000302D30000A50002077696E730A005014
:090CBE00002077696E73002D20FF
:100EE800C101C1000A353030313533303430416406
:0E0EF8000C25302D3020302D3020302D3020B4
:100D8800E4F5A0C282C280C2817F38FE120F24120D
:100D98000EC47F067E00120F24120EC47F0C7E0044
:100DA800120F24120EC47F017E00120F24120EC4EB
:070DB8007F807E00020F2482
:100F3600120EC47F017E00120F247F047E00020E73
:010F4600C8E2
:040EC4007F047E0029
:100EC800E4FDFCC3ED9FEC9E5015E4FBFA0BBB0060
:0F0ED800010ABA01F8BB7EF50DBD00010C80E4E4
:010EE70022E8
:040F20007FC07E0010
:100F2400C280C281D2828FA07F0A7E00120EC8C204
:020F3400822217
:070F070025E02435F8E6FFA8
:100F0E00D280C281D2828FA07F0A7E00120EC8C20A
:020F1E0082222D
:100E7A008B0B8A0C890DAB0BAA0CA90D120AE26026
:100E8A0013050DE50D7002050C14F9120AE2FF12A2
:050E9A000F0E80E222B2
:100F4700758920758DF3759850D28ED2ACD2AF22A9
:080F71008F993001FDC201223D
:100E9F008B0B8A0C890DAB0BAA0CA90D120AE26001
:100EAF0013050DE50D7002050C14F9120AE2FF127D
:050EBF000F7180E2222A
:090F6700E4FF3000FDC200AF9967
:010F7000225E
:03002300020F5772
:100F5700309905C299D20132309804C298D2003232
:08080000120D88120F47801F42
:10080800E4F508120F678F08120F71E5086472602B
:1008180005E508B4520E7BFF7A0C796E120E9F1212
:100828000BB880DCE546454560030208DAE5086454
:10083800316005E508B43207AF0812098080030269
:1008480008F8C3E5229406E5219400500BC3E5247B
:100858009406E52394004071E5242402FFE435233F
:10086800FEC3E5229FE5219E4018E4FFFE120E2CF0
:10087800120D10EF644E70880544E544704B054333
:100888008047E5222402FFE43521FEC3E5249FE5E5
:10089800239E401C7F017E00120E2C120D10EF6467
:1008A8004E60030208080544E544701D054380199D
:1008B800E522B52414E521B5230F754500754601D9
:1008C800E4F531F532F533F534120C14120CC70285
:1008D8000808E508B4310A0532E532701F05318091
:1008E8001BE508B4320A0534E53470100533800C72
:1008F8007BFF7A0C797C120E9F020808120B50C3FA
:10090800E5329407E5319400500BC3E5349407E5CC
:100918003394004030E5342402FFE43533FEC3E568
:10092800329FE5319E4005E4FFFE8016E532240241
:10093800FFE43531FEC3E5349FE5339E40077F0170
:100948007E00120D4FE54645457024120D10EF64E8
:100958004E60030208080544E54470020543E4F5C7
:1009680031F532F533F534F521F522F523F5241266
:050978000C14120E53E7
:03097D0002080865
:100BB800752530752730752930752B30752D3075B2
:100BC8002F30E4F531F532F533F534F521F522F51A
:100BD80023F524F53FF540F541F542F54375440109
:100BE800F545F5467BFF7A0C7991120E9F120F3668
:100BF8007F807E00120F247BFF7A0C79AF120E7A69
:0C0C0800120F207BFF7A0C79AF020E7AED
:10098000EF24D0FFEF24FFFFC374019FFDEF25E0AC
:100990002431F8E6FA08E664034A706CED25E02499
:1009A00031F8E6FA08E6C39403EA94005020E544DF
:1009B00025E025E02421F8EF25E028F806AB07EB39
:1009C00025E02421F80806E6187068068065ED2504
:1009D000E02431F8E6FA08E664034A700EEF25E0F9
:1009E0002431F80806E618706C0622ED25E0243163
:1009F000F8E6FA08E664044A705BED25E02431F875
:100A000008E61618704F1622EF25E02431F8E6FAB2
:100A100008E664044A7031E54425E025E02421F825
:100A2000EF25E028F806EF25E02421F80806E6186F
:100A3000700106EF25E02431F8E4F608F6ED25E034
:100A40002431F8E4F608F622EF25E02431F8080610
:050A5000E6187001062C
:010A5500227E
:100E2C00C374019FFDEF25E0243FF80806E6187017
:100E3C000106EF25E02421F8E4F608F6ED25E02480
:060E4C0021F8E4F608F6AF
:010E5200227D
:100B5000E532646445317013E53464624533700BEB
:100B6000F531753207F53375340522E53264644595
:100B7000317013E53464634533700BF5317532071A
:100B8000F53375340622E53264624531700FE53481
:100B9000646445337007F5317532058015E53264BC
:100BA0006345317012E53464644533700AF531757C
:080BB0003206F533753407220B
:100D4F00C374019FF50AE49EF509E54425E025E00B
:100D5F002421F8EF25E028F806EF25E02421F808F4
:100D6F0006E618700106EF25E0243FF80806E6189E
:080D7F00700106E4F545F5469C
:010D87002249
:100D1000E5406402453F6008E54264024541702CAD
:100D2000E5406402453F70077509317F31800DE56C
:100D3000426402454170087509327F32120DF67F18
:0E0D4000887E13120EC8120BB87F59227F4E08
:010D4E002282
:100C14007F807E00120F24E4F547F548C3E548952C
:100C240044E54795435042E54825E025E02425F86E
:100C3400E6FF120F0EE54825E025E02426F8E6FF3E
:100C4400120F0EE54825E025E02427F8E6FF120FF1
:100C54000EE54825E025E02428F8E6FF120F0E05EE
:0A0C640048E54870B7054780B32249
:100CC700120F20E532120F07E5324531600CE5328D
:100CD70025E02436F8E6FF120F0E900CC5E493FFCB
:100CE700120F0EE534120F07E5344533600CE53477
:100CF70025E02436F8E6FF120F0E900CC6E493FFAA
:090D0700120F0EE493FF020F0E1F
:100DBF008E098F0AC3E50A940AE50994005003EFE0
:100DCF00801EAE09AF0A7C007D0A120AFBEF2430A9
:100DDF00FF120F0EAE09AF0A7C007D0A120AFBED5F
:070DEF002430FF120F0E2259
:100E5300120F20AF32AE31120DBF900CC5E493FFD9
:100E6300120F0EAF34AE33120DBFA3E493FF120F74
:070E73000EE493FF020F0ED5
:100DF6008F0A7BFF7A0C79B3120E9FAF0A120F711E
:100E06007BFF7A0C79B6120E9F120C14120F207B00
:100E1600FF7A0C79BD120E7AAF0A120F0E7BFF7A9B
:060E26000C79BF020E7AF8
:100A6200020800E493A3F8E493A34003F68001F2A2
:100A720008DFF48029E493A3F85407240CC8C33395
:100A8200C4540F4420C8834004F456800146F6DF64
:100A9200E4800B0102040810204080900EE8E47EFE
:100AA200019360BCA3FF543F30E509541FFEE49359
:100AB200A360010ECF54C025E060A840B8E493A320
:100AC200FAE493A3F8E493A3C8C582C8CAC583CA4B
:100AD200F0A3C8C582C8CAC583CADFE9DEE780BE03
:010F060000EA
:100AE200BB010689828A83E0225002E722BBFE0212
:090AF200E32289828A83E4932245
:100AFB00BC000BBE0029EF8DF084FFADF022E4CCDF
:100B0B00F875F008EF2FFFEE33FEEC33FCEE9DECA7
:100B1B00984005FCEE9DFE0FD5F0E9E4CEFD22EDED
:100B2B00F8F5F0EE8420D21CFEADF075F008EF2F37
:100B3B00FFED33FD4007985006D5F0F222C398FD28
:050B4B000FD5F0EA22C5
:00000001FF
