:03000000020A747D
:0C0A7400787FE4F6D8FD758150020ABBC3
:101002000A57726F6E67206B657920707265737311
:101012006564210A00302D300050002077696E731C
:06102200002D2047534D94
:100F8900C101C1000421202020000A393030313547
:100F99003330343041640C29302D3020302D30204D
:0A0FA900302D3020044D008D00CDE6
:100EC200E4F5A0C282C280C2817F38FE121069128C
:100ED20010287F067E001210691210287F0C7E00F7
:100EE2001210691210287F017E0012106912102858
:070EF2007F807E0002106901
:101090001210287F017E001210697F047E0002106A
:0110A0002C23
:041028007F047E00C3
:10102C00E4FDFCC3ED9FEC9E5015E4FBFA0BBB00FA
:0F103C00010ABA01F8BB7EF50DBD00010C80E47E
:01104B002282
:041065007FC07E00CA
:10106900C280C281D2828FA07F0A7E0012102CC258
:021079008222D1
:07104C0025E02439F8E6FF5E
:10105300D280C281D2828FA07F0A7E0012102CC25E
:021063008222E7
:090F30001210697B007A0079219E
:100F39008B0D8A0E890FAB0DAA0EA90F120B8660B5
:100F490013050FE50F7002050E14F9120B86FF1237
:050F5900105380E222AC
:1010A100758920758DF3759850D28ED2ACD2AF224E
:0810CB008F993001FDC20122E2
:060F5E007BFF7A1079020E
:100F64008B098A0A890BAB09AA0AA90B120B8660A2
:100F740013050BE50B7002050A14F9120B86FF1218
:050F840010CB80E22209
:0910C100E4FF3000FDC200AF990C
:0110CA002203
:030023000210B117
:1010B100309905C299D20132309804C298D20032D7
:08080000120EC21210A18016B5
:10080800E4F5081210C18F081210CBE50864726075
:1008180005E508B45205120D6C80E5E54A454960C6
:10082800030208E5E50864316005E508B43207AF5E
:100838000812099E8003120F5EC3E5269406E5257B
:100848009400500BC3E5289406E52794004071E511
:10085800282402FFE43527FEC3E5269FE5259E40B0
:1008680018E4FFFE120FB4120E0DEF644E709105DE
:1008780048E548704B05478047E5262402FFE435E4
:1008880025FEC3E5289FE5279E401C7F017E0012B8
:100898000FB4120E0DEF644E60030208080548E518
:1008A80048701D05478019E526B52814E525B527A4
:1008B8000F754900754A01E4F535F536F537F53811
:1008C800120CB8120DC4120D12BF59097D017C001B
:1008D800E4FF02098BE4FDFC7F0102098BE508B403
:1008E800310A0536E536701605358012E508B4324A
:1008F8000A0538E538700705378003120F5E120BBA
:10090800F4C3E5369407E5359400500BC3E53894F5
:1009180007E53794004030E5382402FFE43537FE18
:10092800C3E5369FE5359E4005E4FFFE8016E536B3
:100938002402FFE43535FEC3E5389FE5379E4007BE
:100948007F017E00120E89E54A45497024120E0D7A
:10095800EF644E60030208080548E5487002054741
:10096800E4F535F536F537F538F525F526F527F5A7
:1009780028120CB8120FDB120D12BF590D7D017C25
:1009880000E4FFFE120B00020808E4FDFC7F01FEF4
:03099800120B003F
:03099B0002080847
:100D6C00752930752B30752D30752F3075313075E8
:100D7C003330E4F535F536F537F538F525F526F548
:100D8C0027F528F543F544F545F546F54775480133
:100D9C00F549F54A7F0A1210CB1210907F807E0025
:100DAC001210697BFF7A107917120F391210657BBC
:080DBC00FF7A107917020F39CC
:10099E00EF24D0FFEF24FFFFC374019FFDEF25E08E
:1009AE002435F8E6FA08E664034A706CED25E02477
:1009BE0035F8E6FA08E6C39403EA94005020E548B9
:1009CE0025E025E02425F8EF25E028F806AB07EB17
:1009DE0025E02425F80806E6187068068065ED25E2
:1009EE00E02435F8E6FA08E664034A700EEF25E0D7
:1009FE002435F80806E618706C0622ED25E024353D
:100A0E00F8E6FA08E664044A705BED25E02435F852
:100A1E0008E61618704F1622EF25E02435F8E6FA90
:100A2E0008E664044A7031E54825E025E02425F8FF
:100A3E00EF25E028F806EF25E02425F80806E6184D
:100A4E00700106EF25E02435F8E4F608F6ED25E012
:100A5E002435F8E4F608F622EF25E02435F80806EA
:050A6E00E6187001060E
:010A73002260
:100FB400C374019FFDEF25E02443F80806E618708A
:100FC4000106EF25E02425F8E4F608F6ED25E024F3
:060FD40025F8E4F608F622
:010FDA0022F4
:100BF400E536646445357013E53864624537700B37
:100C0400F535753607F53775380522E536646445DC
:100C1400357013E53864634537700BF53575360761
:100C2400F53775380622E53664624535700FE538C8
:100C3400646445377007F5357536058015E5366407
:100C44006345357012E53864644537700AF53575C7
:080C54003606F537753807225A
:100E8900C374019FF50AE49EF509E54825E025E0CC
:100E99002425F8EF25E028F806EF25E02425F808B1
:100EA90006E618700106EF25E02443F80806E6185F
:080EB900700106E4F549F54A59
:010EC100220E
:100E0D00E544640245436008E54664024545702C9F
:100E1D00E5446402454370077509317F31800DE566
:100E2D00466402454570087509327F32120E4C7FBB
:0E0E3D00887E1312102C120D6C7F59227F4EEE
:010E4B002284
:100CB8007F807E00121069E4F54BF54CC3E54C9536
:100CC80048E54B95475042E54C25E025E02429F8B6
:100CD800E6FF121053E54C25E025E0242AF8E6FF4C
:100CE800121053E54C25E025E0242BF8E6FF1210FE
:100CF80053E54C25E025E0242CF8E6FF12105305B7
:0A0D08004CE54C70B7054B80B32298
:100DC400121065E53612104CE5364535600CE536F3
:100DD40025E0243AF8E6FF121053901023E493FF21
:100DE400121053E53812104CE5384537600CE538DD
:100DF40025E0243AF8E6FF121053901024E493FF00
:090E0400121053E493FF02105395
:100EF9008E098F0AC3E50A940AE50994005003EFA5
:100F0900801EAE09AF0A7C007D0A120B9FEF2430C8
:100F1900FF121053AE09AF0A7C007D0A120B9FED38
:070F29002430FF12105322D7
:100FDB00121065AF36AE35120EF9901023E493FF65
:100FEB00121053AF38AE37120EF9A3E493FF121061
:070FFB0053E493FF021053C1
:100E4C008F0A120CB8AF4EAE4D120F30AF50AE4FE2
:100E5C00120F301210657BFF7A10791B120F39AF0D
:100E6C000A1210537BFF7A10791D120F397FCD7E39
:0D0E7C00001210697B007A007921020F3905
:100B00008E098F0A8C0B8D0CEF25E0244DF8E6FE44
:100B100008E6FF121069AD0CAC0BAF0AAE09120D5E
:100B200019EF6459704590102593FF121053AD0CC6
:100B3000AC0BAF0AAE09120C5CEF6459701C90103C
:100B40002693FF121053AF0AAE0912107BBF59054E
:100B5000901027800E9010248009901024E493FFB9
:100B6000121053E493FF1210538003120F33E50C5D
:100B700025E0244DF8E6FE08E6FF1210697B007AB6
:060B8000007921020F398B
:070D12007D017C00E4FFFEFF
:100D1900E54A45497012EF25E02435F8E6FA08E678
:100D2900C39403EA9400501AE54A640145497030B6
:100D3900EF25E02435F8E6FA08E6C39406EA9400BC
:100D4900401EED25E02435F8E6FC08E6FDEF25E038
:100D59002435F8E6FE08E6D39DEE9C40037F592230
:030D69007F4E2298
:100C5C00EF25E02425F8E6FA08E6FB64064A701F47
:100C6C00ED25E02425F8E6F58308E6F582C3EB953F
:100C7C0082FBEA9583FAD3EB9401EA94004027EFC8
:100C8C0025E02425F8E6FA08E6FB64054A701AED1F
:100C9C0025E02425F8E6FC08E62401FDE43CFCC331
:0C0CAC00EB9DEA9C40037F59227F4E2202
:10107B00EF25E02443F8E6FE08E664014E70037F9B
:05108B0059227F4E22F6
:100A8000020800E493A3F8E493A34003F68001F284
:100A900008DFF48029E493A3F85407240CC8C33377
:100AA000C4540F4420C8834004F456800146F6DF46
:100AB000E4800B0102040810204080900F89E47E3E
:100AC000019360BCA3FF543F30E509541FFEE4933B
:100AD000A360010ECF54C025E060A840B8E493A302
:100AE000FAE493A3F8E493A3C8C582C8CAC583CA2D
:100AF000F0A3C8C582C8CAC583CADFE9DEE780BEE5
:010FB300003D
:100B8600BB010689828A83E0225002E722BBFE026D
:090B9600E32289828A83E49322A0
:100B9F00BC000BBE0029EF8DF084FFADF022E4CC3A
:100BAF00F875F008EF2FFFEE33FEEC33FCEE9DEC03
:100BBF00984005FCEE9DFE0FD5F0E9E4CEFD22ED49
:100BCF00F8F5F0EE8420D21CFEADF075F008EF2F93
:100BDF00FFED33FD4007985006D5F0F222C398FD84
:050BEF000FD5F0EA2221
:00000001FF
