:03000000020B737D
:0C0B7300787FE4F6D8FD758148020BBACB
:10098D000A526573657474696E672E2E2E000A57B0
:10099D00726F6E67206B6579207072657373656415
:1009AD00210A000A54656E6E69732053636F726578
:1009BD00626F6172642053696D756C61746F720A38
:1009CD000054656E6E697353636F7265626F617209
:1009DD00640020202053696D756C61746F72003056
:1009ED002D30000A50002077696E730A00500020E8
:1009FD0077696E73000A507265737320603127201A
:100A0D00696620506C6179657220312077696E734B
:100A1D002074686520706F696E74000A507265737A
:100A2D00732060322720696620506C6179657220D1
:100A3D00322077696E732074686520706F696E74EB
:100A4D00000A507265737320607227206F722060E8
:100A5D00522720746F2072657365742067616D6510
:100A6D00000A507265737320606927206F722060D1
:100A7D00492720666F7220746865736520696E73EF
:100A8D007472756374696F6E730A002D2047534D30
:10101500C101C1000A3530303135333034304164D7
:0E1025000C25302D3020302D3020302D302085
:100EC100E4F5A0C282C280C2817F38FE12105112A5
:100ED1000FCD7F067E00121051120FCD7F0C7E00C8
:100EE100121051120FCD7F017E00121051120FCD41
:070EF1007F807E000210511A
:10106300120FCD7F017E001210517F047E00020F0C
:01107300D1AB
:040FCD007F047E001F
:100FD100E4FDFCC3ED9FEC9E5015E4FBFA0BBB0056
:0F0FE100010ABA01F8BB7EF50DBD00010C80E4DA
:010FF00022DE
:04104D007FC07E00E2
:10105100C280C281D2828FA07F0A7E00120FD1C2CC
:021061008222E9
:0710340025E02435F8E6FF7A
:10103B00D280C281D2828FA07F0A7E00120FD1C2D2
:02104B008222FF
:100FA8008B0B8A0C890DAB0BAA0CA90D120C7E6059
:100FB80013050DE50D7002050C14F9120C7EFF12D5
:050FC800103B80E22255
:10107400758920758DF3759850D28ED2ACD2AF227B
:08109E008F993001FDC201220F
:060F2F007BFF7A09799BAB
:100F35008B0B8A0C890DAB0BAA0CA90D120C7E60CC
:100F450013050DE50D7002050C14F9120C7EFF1248
:050F5500109E80E22265
:09109400E4FF3000FDC200AF9939
:01109D002230
:0300230002108444
:10108400309905C299D20132309804C298D2003204
:0B080000120EC1121074120BFF802FAB
:10080B00E4F5081210948F0812109EE508647260CC
:10081B0005E508B4520E7BFF7A09798D120F35125C
:10082B000BFF80DCE50864696005E508B449051237
:10083B000FF180CCE546454560030208F0E50864FE
:10084B00316005E508B43207AF08120A9D80031228
:10085B000F2FC3E5229406E5219400500BC3E5242A
:10086B009406E52394004074E5242402FFE4352329
:10087B00FEC3E5229FE5219E401BE4FFFE120F5AAB
:10088B00120E49EF644E600302080B0544E54470F9
:10089B004B05438047E5222402FFE43521FEC3E5E7
:1008AB00249FE5239E401C7F017E00120F5A120EDF
:1008BB0049EF644E600302080B0544E544701D05C7
:1008CB00438019E522B52414E521B5230F754500A6
:1008DB00754601E4F531F532F533F534120D54124A
:1008EB000E0002080BE508B4310A0532E53270162A
:1008FB0005318012E508B4320A0534E5347007057A
:10090B00338003120F2F120CECC3E5329407E53141
:10091B009400500BC3E5349407E53394004030E565
:10092B00342402FFE43533FEC3E5329FE5319E40AC
:10093B0005E4FFFE8016E5322402FFE43531FEC3E9
:10094B00E5349FE5339E40077F017E00120E88E55C
:10095B004645457024120E49EF644E600302080BA6
:10096B000544E54470020543E4F531F532F533F502
:0F097B0034F521F522F523F524120D54120F81C6
:03098A0002080B55
:100BFF00752530752730752930752B30752D30756B
:100C0F002F30E4F531F532F533F534F521F522F5D2
:100C1F0023F524F53FF540F541F542F543754401C1
:100C2F00F545F5467BFF7A0979B0120F357F807E47
:100C3F00001210517BFF7A0979CE120FA812104DB6
:100C4F007BFF7A0979DF120FA87FD07E07120FD1B1
:100C5F001210637F807E001210517BFF7A0979ECAE
:0F0C6F00120FA812104D7BFF7A0979EC020FA823
:100A9D00EF24D0FFEF24FFFFC374019FFDEF25E08E
:100AAD002431F8E6FA08E664034A706CED25E0247B
:100ABD0031F8E6FA08E6C39403EA94005020E544C1
:100ACD0025E025E02421F8EF25E028F806AB07EB1B
:100ADD0025E02421F80806E6187068068065ED25E6
:100AED00E02431F8E6FA08E664034A700EEF25E0DB
:100AFD002431F80806E618706C0622ED25E0243145
:100B0D00F8E6FA08E664044A705BED25E02431F856
:100B1D0008E61618704F1622EF25E02431F8E6FA94
:100B2D0008E664044A7031E54425E025E02421F807
:100B3D00EF25E028F806EF25E02421F80806E61851
:100B4D00700106EF25E02431F8E4F608F6ED25E016
:100B5D002431F8E4F608F622EF25E02431F80806F2
:050B6D00E6187001060E
:010B72002260
:100F5A00C374019FFDEF25E0243FF80806E61870E8
:100F6A000106EF25E02421F8E4F608F6ED25E02451
:060F7A0021F8E4F608F680
:010F8000224E
:100CEC00E532646445317013E53464624533700B4E
:100CFC00F531753207F53375340522E532646445F8
:100D0C00317013E53464634533700BF5317532077C
:100D1C00F53375340622E53264624531700FE534E3
:100D2C00646445337007F5317532058015E532641E
:100D3C006345317012E53464644533700AF53175DE
:080D4C003206F533753407226D
:100E8800C374019FF50AE49EF509E54425E025E0D1
:100E98002421F8EF25E028F806EF25E02421F808BA
:100EA80006E618700106EF25E0243FF80806E61864
:080EB800700106E4F545F54662
:010EC000220F
:100E4900E5406402453F6008E54264024541702C73
:100E5900E5406402453F70077509317F31800DE532
:100E6900426402454170087509327F32120DAE7F26
:0E0E7900887E13120FD1120BFF7F59227F4E7D
:010E87002248
:100D54007F807E00121051E4F547F548C3E54895BD
:100D640044E54795435042E54825E025E02425F82D
:100D7400E6FF12103BE54825E025E02426F8E6FFCF
:100D840012103BE54825E025E02427F8E6FF121081
:100D94003BE54825E025E02428F8E6FF12103B0552
:0A0DA40048E54870B7054780B32208
:100E000012104DE532121034E5324531600CE532F6
:100E100025E02436F8E6FF12103B900A98E493FF91
:100E200012103BE534121034E5344533600CE534E0
:100E300025E02436F8E6FF12103B900A99E493FF70
:090E400012103BE493FF02103B89
:100EF8008E098F0AC3E50A940AE50994005003EFA6
:100F0800801EAE09AF0A7C007D0A120C97EF2430D0
:100F1800FF12103BAE09AF0A7C007D0A120C97ED58
:070F28002430FF12103B22F0
:100F810012104DAF32AE31120EF8900A98E493FF71
:100F910012103BAF34AE33120EF8A3E493FF1210DC
:070FA1003BE493FF02103B4B
:100DAE008F0A7BFF7A0979F0120F35AF0A12109E67
:100DBE007BFF7A0979F3120F35120D5412104D7B09
:100DCE00FF7A0979FA120FA8AF0A12103B7BFF7A4D
:100DDE000979FC120FA87FCD7E00121051900A994E
:100DEE00E493FF12103BE493FF12103BE493FF02D7
:020DFE00103BA8
:100FF1007BFF7A0A7902120F357BFF7A0A79281270
:101001000F357BFF7A0A794E120F357BFF7A0A7909
:041011006E020F3527
:100B7F00020800E493A3F8E493A34003F68001F284
:100B8F0008DFF48029E493A3F85407240CC8C33377
:100B9F00C4540F4420C8834004F456800146F6DF46
:100BAF00E4800B0102040810204080901015E47EB1
:100BBF00019360BCA3FF543F30E509541FFEE4933B
:100BCF00A360010ECF54C025E060A840B8E493A302
:100BDF00FAE493A3F8E493A3C8C582C8CAC583CA2D
:100BEF00F0A3C8C582C8CAC583CADFE9DEE780BEE5
:0110330000BC
:100C7E00BB010689828A83E0225002E722BBFE0274
:090C8E00E32289828A83E49322A7
:100C9700BC000BBE0029EF8DF084FFADF022E4CC41
:100CA700F875F008EF2FFFEE33FEEC33FCEE9DEC0A
:100CB700984005FCEE9DFE0FD5F0E9E4CEFD22ED50
:100CC700F8F5F0EE8420D21CFEADF075F008EF2F9A
:100CD700FFED33FD4007985006D5F0F222C398FD8B
:050CE7000FD5F0EA2228
:00000001FF
