:03000000020100FA
:0C000B0009C28C758C00758A00D28C3202
:1001000075900175891175A88231A72090FD7480C2
:1001100031E6900300510874C031E690030B51089A
:100120003197D2947900D28C3090FDC294C28C5118
:100130001A748031E6900318510874C031E69003B8
:1001400026510889F0315B742031F7858CF0315BE2
:10015000858AF0315B319C511A80B0E5F0C4540FB0
:100160003169E5F0540F316922B40A00500424309B
:100170008002243731F72200758BD0758D63D28EC3
:10018000308FFDC28EC28F22C000C001783231771D
:10019000D8FCD001D00022318831882231883188C2
:1001A00031883188318822512C75A038C280C281B3
:1001B000D282512CC282512C75A00CC280C281D235
:1001C00082512CC282512C75A001C280C281D28280
:1001D000512CC282512C75A006C280C281D282519C
:1001E0002CC282512C22512CF5A0C280C281D28215
:1001F000512CC282512C22512CF5A0D280C281D226
:1002000082512CC282512C22512CC0E0E493600513
:1002100031F7A380F7D0E0512C22512C75A001C2F8
:0E02200080C281D282512CC282512C22C00099
:0B022E00C00179C8D9FED001D0002229
:10030000546F67676C6520535731006966204C4510
:100310004420676C6F7773005265616374696F6E18
:100320002054696D6500436F756E742069732000F9
:00000001FF
