:03000000020BE30D
:0C0BE300787FE4F6D8FD758148020C2AEA
:100CCB000A54656E6E69732053636F7265626F6150
:100CDB0072642053696D756C61746F720A00302DEC
:100CEB0030000A50312057696E730A00503120577B
:100CFB00696E73000A50322057696E730A005032C6
:100D0B002057696E730057726F6E67206B65792081
:0C0D1B0070726573736564210A002D205E
:100EED00C101C1000A2D3030313533303430416409
:0E0EFD000C21302D3020302D3020302D3020B3
:100E0B00E4F5A0C282C280C2817F38FE120F10129D
:100E1B000EC97F067E00120F10120EC97F0C7E00CA
:100E2B00120F10120EC97F017E00120F10120EC985
:070E3B007F807E00020F1012
:100F2200120EC97F017E00120F107F047E00020E96
:010F3200CDF1
:040EC9007F047E0024
:100ECD00E4FDFCC3ED9FEC9E5015E4FBFA0BBB005B
:0F0EDD00010ABA01F8BB7EF50DBD00010C80E4DF
:010EEC0022E3
:040F0C007F807E0064
:100F1000C280C281D2828FA07F0A7E00120ECDC213
:020F200082222B
:100D8200E54825E025E02421F8E6FF120DB7E54805
:100D920025E025E02422F8E6FF120DB7E54825E01C
:100DA20025E02423F8E6FF120DB7E54825E025E00B
:050DB2002424F8E6FF17
:100DB700D280C281D2828FA07F0A7E00120ECDC25E
:020DC700822286
:100EA4008B108A118912AB10AA11A912120B4A6075
:100EB400130512E5127002051114F9120B4AFF1200
:050EC4000DB780E222E1
:0A0DC9008B088A09890A8C0B8D0C37
:100DD300E4F50DF50EC3E50E950CE50B6480F8E51F
:100DE3000D6480985021AB08E50AF92402F50AE561
:100DF30009FA3400F509120BB8FF120DB7050EE519
:070E03000E70D2050D80CE38
:010E0A0022C5
:100F3300758920758DF3759850D28ED2ACD2AF22BD
:080F5D008F993001FDC2012251
:060E79007BFF7A0D7911E8
:100E7F008B108A118912AB10AA11A912120B4A609A
:100E8F00130512E5127002051114F9120B4AFF1225
:050E9F000F5D80E2225E
:090F5300E4FF3000FDC200AF997B
:010F5C002272
:03002300020F4386
:100F4300309905C299D20132309804C298D2003246
:100C6F00752130752330752530752730752930750E
:100C7F002B30E4F53DF53EF53FF540F537F538F50A
:100C8F0039F53AF543F544F545F546F53B753C0125
:100C9F00F541F5427BFF7A0C79CB120E7F120F22B2
:100CAF00120F0C7BFF7A0C79E9120EA47FC07E0025
:0C0CBF00120F107BFF7A0C79E9020EA4E2
:100E42008E108F11C3E511940AE51094005003EF40
:100E5200801EAE10AF117C007D0A120B63EF2430AE
:100E6200FF120DB7AE10AF117C007D0A120B63EDBD
:070E72002430FF120DB7222E
:090D2700E4F537F538F539F53A29
:100D3000E5446402454370177BFF7A0C79ED120E8F
:100D40007F120F22120F0C7BFF7A0C79F7801DE5C2
:100D5000466402454570277BFF7A0C79FF120E7FAF
:100D6000120F22120F0C7BFF7A0D7909120EA47F4D
:100D7000887E13120ECD120C6F7E007F0122E4FEDE
:020D8000FF2250
:08080000120E0B120F338010E1
:10080800E4F50F120F538F0F120F5DE50FB4720549
:10081800120C6F80EBE54245416003020A3DE50F8B
:1008280064317079E53E6403453D7049C3E5409401
:1008380003E53F94005015E53C25E025E0241DF82C
:10084800060538E5387048053702091CE540640399
:10085800453F700B053EE53E7018053D020934E53D
:10086800406404453F6003020934E54015407002C6
:10087800153F020934E53E6404453D7015E53C2505
:10088800E025E0241DF8060538E538700205370232
:10089800091C053EE53E7002053D020934E50F647A
:1008A800326003020931E5406403453F704CC3E5FB
:1008B8003E9403E53D9400501DE53C25E025E024E9
:1008C8001FF806053AE53A70020539E4F53FF540A8
:1008D800F53DF53E8056E53E6403453D700A05400A
:1008E800E5407048053F8044E53E6404453D703C62
:1008F800E53E153E7036153D8032E5406404453FBF
:10090800701DE53C25E025E0241FF806053AE53A88
:1009180070020539E4F53DF53EF53FF540800D05DB
:1009280040E5407007053F8003120E79C3E538940F
:1009380006E5379400500BC3E53A9406E539940070
:100948004075E53A2402FFE43539FEC3E5389FE5F2
:10095800379E401C0544E54470020543120D27EFFD
:100968004E6003020808053CE53C704B053B804798
:10097800E5382402FFE43537FEC3E53A9FE5399EA2
:10098800401C0546E54670020545120D27EF4E60EE
:1009980003020808053CE53C701D053B8019E53855
:1009A800B53A14E537B5390F754100754201E4F5DC
:1009B8003DF53EF53FF540120F0CE4F547F548C309
:1009C800E548953CE547953B500D120D820548E5F5
:1009D8004870EC054780E87FC07E00120F10E53EA6
:1009E80025E0242DF8E6FF120DB7E53E453D600CE5
:1009F800E53E25E0242EF8E6FF120DB7900D25E41C
:100A080093FF120DB7E54025E0242DF8E6FF120DFF
:100A1800B7E540453F600CE54025E0242EF8E6FFA9
:100A2800120DB7900D26E493FF120DB7E493FF1251
:100A38000DB7020808E50FB4310A053EE53E701609
:100A4800053D8012E50FB4320A0540E54070070500
:100A58003F8003120E79C3E53E9407E53D940050AC
:100A68000BC3E5409407E53F9400405FE54024024E
:100A7800FFE4353FFEC3E53E9FE53D9E401CE53C57
:100A880025E025E0241DF8060538E538700205370D
:100A98000544E54470300543802CE53E2402FFE41C
:100AA800353DFEC3E5409FE53F9E401FE53C25E000
:100AB80025E0241FF806053AE53A7002053905468F
:100AC800E54670020545E4F541F542E542454170C9
:100AD80023120D30EF4E6003020808053CE53C7018
:100AE80002053BE4F53DF53EF53FF540F537F538B1
:100AF800F539F53A120F0CE4F547F548C3E5489582
:100B08003CE547953B500D120D820548E54870ECD1
:100B1800054780E87FC07E00120F10AF3EAE3D1241
:100B28000E42900D25E493FF120DB7AF40AE3F1271
:0F0B38000E42A3E493FF120DB7E493FF120DB723
:030B470002080899
:100BEF00020800E493A3F8E493A34003F68001F214
:100BFF0008DFF48029E493A3F85407240CC8C33307
:100C0F00C4540F4420C8834004F456800146F6DFD5
:100C1F00E4800B0102040810204080900EEDE47E6A
:100C2F00019360BCA3FF543F30E509541FFEE493CA
:100C3F00A360010ECF54C025E060A840B8E493A391
:100C4F00FAE493A3F8E493A3C8C582C8CAC583CABC
:100C5F00F0A3C8C582C8CAC583CADFE9DEE780BE74
:010F0B0000E5
:100B4A00BB010689828A83E0225002E722BBFE02A9
:090B5A00E32289828A83E49322DC
:100B6300BC000BBE0029EF8DF084FFADF022E4CC76
:100B7300F875F008EF2FFFEE33FEEC33FCEE9DEC3F
:100B8300984005FCEE9DFE0FD5F0E9E4CEFD22ED85
:100B9300F8F5F0EE8420D21CFEADF075F008EF2FCF
:100BA300FFED33FD4007985006D5F0F222C398FDC0
:050BB3000FD5F0EA225D
:100BB800BB010A89828A83E0F5F0A3E02250068708
:100BC800F009E71922BBFE07E3F5F009E3192289CA
:0B0BD800828A83E493F5F074019322FD
:00000001FF
