:03000000020100FA
:10010000D290D291D292512A31BF512AE590540710
:100110002401F8740A98F875F002A4FB75F00AE857
:10012000A4F9746499FAD294D295D296D29775892B
:1001300001758AD1758C63D28C748031FC512A9000
:100140000300511CE975F00A842430510B512AE553
:10015000F02430510B512A74C031FC512A90030C09
:10016000511C512AEB75F00A84FCADF07E007F0033
:10017000EC2430510B512AED2430510B512AEE243E
:1001800030510B512AEF2430510B512A308DFDC2D2
:100190008CC28D19A80131ABD8FCC294C295C2960D
:1001A000C297A80231ABD8FC02010C007589017519
:1001B0008AD1758C63D28C308DFDC28CC28D227534
:1001C000A038C280C281D282512AC282512A75A02F
:1001D0000CC280C281D282512AC282512A75A001EA
:1001E000C280C281D282512AC282512A75A006C21F
:1001F00080C281D282512AC282512A22F5A0C280B5
:10020000C281D282512AC282512A22F5A0D280C252
:1002100081D282512AC282512A512A22C0E0E4931B
:02022000600577
:10022200510BA380F7D0E022C000C001792AD9FE89
:05023200D001D0002204
:1003000044757479204379636C653A0050756C7359
:09031000652077696474683A0005
:00000001FF
